{
  "_format": "hh-sol-artifact-1",
  "contractName": "ConfidentialSecretSanta",
  "sourceName": "contracts/SecretSanta.sol",
  "abi": [
    {
      "inputs": [],
      "name": "ZamaProtocolUnsupported",
      "type": "error"
    },
    {
      "anonymous": false,
      "inputs": [
        {
          "indexed": false,
          "internalType": "address",
          "name": "santa",
          "type": "address"
        },
        {
          "indexed": false,
          "internalType": "address",
          "name": "giftee",
          "type": "address"
        }
      ],
      "name": "MatchRevealed",
      "type": "event"
    },
    {
      "anonymous": false,
      "inputs": [
        {
          "indexed": false,
          "internalType": "uint256",
          "name": "round",
          "type": "uint256"
        }
      ],
      "name": "MatchingCompleted",
      "type": "event"
    },
    {
      "anonymous": false,
      "inputs": [
        {
          "indexed": true,
          "internalType": "address",
          "name": "participant",
          "type": "address"
        }
      ],
      "name": "WishlistSubmitted",
      "type": "event"
    },
    {
      "inputs": [],
      "name": "confidentialProtocolId",
      "outputs": [
        {
          "internalType": "uint256",
          "name": "",
          "type": "uint256"
        }
      ],
      "stateMutability": "view",
      "type": "function"
    },
    {
      "inputs": [],
      "name": "getMyGifteeWishlist",
      "outputs": [
        {
          "internalType": "euint32",
          "name": "",
          "type": "bytes32"
        }
      ],
      "stateMutability": "view",
      "type": "function"
    },
    {
      "inputs": [],
      "name": "getParticipantCount",
      "outputs": [
        {
          "internalType": "uint256",
          "name": "",
          "type": "uint256"
        }
      ],
      "stateMutability": "view",
      "type": "function"
    },
    {
      "inputs": [],
      "name": "isMatchingComplete",
      "outputs": [
        {
          "internalType": "bool",
          "name": "",
          "type": "bool"
        }
      ],
      "stateMutability": "view",
      "type": "function"
    },
    {
      "inputs": [],
      "name": "matchingComplete",
      "outputs": [
        {
          "internalType": "bool",
          "name": "",
          "type": "bool"
        }
      ],
      "stateMutability": "view",
      "type": "function"
    },
    {
      "inputs": [],
      "name": "matchingRound",
      "outputs": [
        {
          "internalType": "uint256",
          "name": "",
          "type": "uint256"
        }
      ],
      "stateMutability": "view",
      "type": "function"
    },
    {
      "inputs": [],
      "name": "participantCount",
      "outputs": [
        {
          "internalType": "uint256",
          "name": "",
          "type": "uint256"
        }
      ],
      "stateMutability": "view",
      "type": "function"
    },
    {
      "inputs": [],
      "name": "runMatching",
      "outputs": [],
      "stateMutability": "nonpayable",
      "type": "function"
    },
    {
      "inputs": [
        {
          "internalType": "externalEuint32",
          "name": "encryptedWishlist",
          "type": "bytes32"
        },
        {
          "internalType": "bytes",
          "name": "proof",
          "type": "bytes"
        }
      ],
      "name": "submitWishlist",
      "outputs": [],
      "stateMutability": "nonpayable",
      "type": "function"
    },
    {
      "inputs": [],
      "name": "validateNoSelfMatching",
      "outputs": [
        {
          "internalType": "bool",
          "name": "",
          "type": "bool"
        }
      ],
      "stateMutability": "view",
      "type": "function"
    }
  ],
  "bytecode": "0x60806040523480156200001157600080fd5b5062000032620000266200003860201b60201c565b620000df60201b60201c565b6200042a565b62000042620003c7565b6001460362000063576200005b620000f360201b60201c565b9050620000dc565b62aa36a7460362000086576200007e6200016260201b60201c565b9050620000db565b617a694603620000a857620000a06200020a60201b60201c565b9050620000da565b6040517f73cac13b00000000000000000000000000000000000000000000000000000000815260040160405180910390fd5b5b5b90565b620000f081620002b260201b60201c565b50565b620000fd620003c7565b6040518060600160405280600073ffffffffffffffffffffffffffffffffffffffff168152602001600073ffffffffffffffffffffffffffffffffffffffff168152602001600073ffffffffffffffffffffffffffffffffffffffff16815250905090565b6200016c620003c7565b604051806060016040528073f0ffdc93b7e186bc2f8cb3daa75d86d1930a433d73ffffffffffffffffffffffffffffffffffffffff1681526020017392c920834ec8941d2c77d188936e1f7a6f49c12773ffffffffffffffffffffffffffffffffffffffff16815260200173be0e383937d564d7ff0bc3b46c51f0bf8d5c311a73ffffffffffffffffffffffffffffffffffffffff16815250905090565b62000214620003c7565b60405180606001604052807350157cffd6bbfa2dece204a89ec419c23ef5755d73ffffffffffffffffffffffffffffffffffffffff16815260200173e3a9105a3a932253a70f126eb1e3b589c643dd2473ffffffffffffffffffffffffffffffffffffffff16815260200173be0e383937d564d7ff0bc3b46c51f0bf8d5c311a73ffffffffffffffffffffffffffffffffffffffff16815250905090565b6000620002c46200039f60201b60201c565b905081600001518160000160006101000a81548173ffffffffffffffffffffffffffffffffffffffff021916908373ffffffffffffffffffffffffffffffffffffffff16021790555081602001518160010160006101000a81548173ffffffffffffffffffffffffffffffffffffffff021916908373ffffffffffffffffffffffffffffffffffffffff16021790555081604001518160020160006101000a81548173ffffffffffffffffffffffffffffffffffffffff021916908373ffffffffffffffffffffffffffffffffffffffff1602179055505050565b60007f9e7b61f58c47dc699ac88507c4f5bb9f121c03808c5676a8078fe583e4649700905090565b6040518060600160405280600073ffffffffffffffffffffffffffffffffffffffff168152602001600073ffffffffffffffffffffffffffffffffffffffff168152602001600073ffffffffffffffffffffffffffffffffffffffff1681525090565b6116ef806200043a6000396000f3fe608060405234801561001057600080fd5b506004361061009e5760003560e01c80638d24eeb9116100665780638d24eeb914610137578063ad60572914610155578063c9cf1a0414610173578063cb1a438114610191578063fb34bc62146101af5761009e565b80631924ce81146100a357806321e55c25146100c157806330b60246146100dd578063362f04c0146100fb5780638927b03014610119575b600080fd5b6100ab6101b9565b6040516100b89190610eaf565b60405180910390f35b6100db60048036038101906100d69190610f65565b6103b4565b005b6100e5610764565b6040516100f29190610fe0565b60405180910390f35b610103610777565b6040516101109190611014565b60405180910390f35b61012161077d565b60405161012e9190611014565b60405180910390f35b61013f61078c565b60405161014c9190610fe0565b60405180910390f35b61015d6107a3565b60405161016a9190611014565b60405180910390f35b61017b6107ac565b6040516101889190610fe0565b60405180910390f35b610199610835565b6040516101a69190611014565b60405180910390f35b6101b761083b565b005b60008073ffffffffffffffffffffffffffffffffffffffff16600460003373ffffffffffffffffffffffffffffffffffffffff1673ffffffffffffffffffffffffffffffffffffffff16815260200190815260200160002060000160009054906101000a900473ffffffffffffffffffffffffffffffffffffffff1673ffffffffffffffffffffffffffffffffffffffff160361028b576040517f08c379a00000000000000000000000000000000000000000000000000000000081526004016102829061108c565b60405180910390fd5b600260009054906101000a900460ff166102da576040517f08c379a00000000000000000000000000000000000000000000000000000000081526004016102d1906110f8565b60405180910390fd5b600460003373ffffffffffffffffffffffffffffffffffffffff1673ffffffffffffffffffffffffffffffffffffffff16815260200190815260200160002060020160019054906101000a900460ff16610369576040517f08c379a000000000000000000000000000000000000000000000000000000000815260040161036090611164565b60405180910390fd5b6000600560003373ffffffffffffffffffffffffffffffffffffffff1673ffffffffffffffffffffffffffffffffffffffff1681526020019081526020016000205490508091505090565b600260009054906101000a900460ff1615610404576040517f08c379a00000000000000000000000000000000000000000000000000000000081526004016103fb906111d0565b60405180910390fd5b600460003373ffffffffffffffffffffffffffffffffffffffff1673ffffffffffffffffffffffffffffffffffffffff16815260200190815260200160002060020160009054906101000a900460ff1615610494576040517f08c379a000000000000000000000000000000000000000000000000000000000815260040161048b9061123c565b60405180910390fd5b60006104e48484848080601f016020809104026020016040519081016040528093929190818152602001838380828437600081840152601f19601f82011690508083019250505050505050610ba0565b9050600073ffffffffffffffffffffffffffffffffffffffff16600460003373ffffffffffffffffffffffffffffffffffffffff1673ffffffffffffffffffffffffffffffffffffffff16815260200190815260200160002060000160009054906101000a900473ffffffffffffffffffffffffffffffffffffffff1673ffffffffffffffffffffffffffffffffffffffff16036105f7576003339080600181540180825580915050600190039060005260206000200160009091909190916101000a81548173ffffffffffffffffffffffffffffffffffffffff021916908373ffffffffffffffffffffffffffffffffffffffff1602179055506000808154809291906105f19061128b565b91905055505b60405180608001604052803373ffffffffffffffffffffffffffffffffffffffff16815260200182815260200160011515815260200160001515815250600460003373ffffffffffffffffffffffffffffffffffffffff1673ffffffffffffffffffffffffffffffffffffffff16815260200190815260200160002060008201518160000160006101000a81548173ffffffffffffffffffffffffffffffffffffffff021916908373ffffffffffffffffffffffffffffffffffffffff1602179055506020820151816001015560408201518160020160006101000a81548160ff02191690831515021790555060608201518160020160016101000a81548160ff02191690831515021790555090505061071081610bb6565b5061071b8133610bca565b503373ffffffffffffffffffffffffffffffffffffffff167e0cbd769ca212e777985a5a120f8d87322c65124bdfb9e441781c1ba18e7d2060405160405180910390a250505050565b600260009054906101000a900460ff1681565b60005481565b6000610787610bdf565b905090565b6000600260009054906101000a900460ff16905090565b60008054905090565b6000600260009054906101000a900460ff166107cb5760009050610832565b60005b60038054905081101561082c576000600382815481106107f1576107f06112d3565b5b9060005260206000200160009054906101000a900473ffffffffffffffffffffffffffffffffffffffff1690505080806001019150506107ce565b50600190505b90565b60015481565b600260009054906101000a900460ff161561088b576040517f08c379a0000000000000000000000000000000000000000000000000000000008152600401610882906111d0565b60405180910390fd5b600260005410156108d1576040517f08c379a00000000000000000000000000000000000000000000000000000000081526004016108c89061134e565b60405180910390fd5b600060026000546108e2919061139d565b14610922576040517f08c379a000000000000000000000000000000000000000000000000000000000815260040161091990611440565b60405180910390fd5b60005b600380549050811015610b3157600060038281548110610948576109476112d3565b5b9060005260206000200160009054906101000a900473ffffffffffffffffffffffffffffffffffffffff169050600060036001846109869190611460565b81548110610997576109966112d3565b5b9060005260206000200160009054906101000a900473ffffffffffffffffffffffffffffffffffffffff1690506000600460008373ffffffffffffffffffffffffffffffffffffffff1673ffffffffffffffffffffffffffffffffffffffff168152602001908152602001600020600101549050610a1481610bb6565b50610a1f8184610bca565b5080600560008573ffffffffffffffffffffffffffffffffffffffff1673ffffffffffffffffffffffffffffffffffffffff168152602001908152602001600020819055506001600460008573ffffffffffffffffffffffffffffffffffffffff1673ffffffffffffffffffffffffffffffffffffffff16815260200190815260200160002060020160016101000a81548160ff0219169083151502179055506001600460008473ffffffffffffffffffffffffffffffffffffffff1673ffffffffffffffffffffffffffffffffffffffff16815260200190815260200160002060020160016101000a81548160ff021916908315150217905550505050600281610b2a9190611460565b9050610925565b506001600260006101000a81548160ff02191690831515021790555060016000815480929190610b609061128b565b91905055507fb9f6213a943adb39fa171937f544204230b8dbdb8c3fe036cdb6b0f6ca6cadb3600154604051610b969190611014565b60405180910390a1565b6000610bae83836004610c31565b905092915050565b6000610bc28230610d7f565b819050919050565b6000610bd68383610d7f565b82905092915050565b600060014603610bf857610bf1610e21565b9050610c2e565b62aa36a74603610c1157610c0a610e2a565b9050610c2e565b617a694603610c2957610c22610e34565b9050610c2e565b600090505b90565b600080610c3c610e5c565b90508060010160009054906101000a900473ffffffffffffffffffffffffffffffffffffffff1673ffffffffffffffffffffffffffffffffffffffff166308bf832a863387876040518563ffffffff1660e01b8152600401610ca194939291906115eb565b6020604051808303816000875af1158015610cc0573d6000803e3d6000fd5b505050506040513d601f19601f82011682018060405250810190610ce49190611663565b91508060000160009054906101000a900473ffffffffffffffffffffffffffffffffffffffff1673ffffffffffffffffffffffffffffffffffffffff16633e395cec83336040518363ffffffff1660e01b8152600401610d45929190611690565b600060405180830381600087803b158015610d5f57600080fd5b505af1158015610d73573d6000803e3d6000fd5b50505050509392505050565b6000610d89610e5c565b90508060000160009054906101000a900473ffffffffffffffffffffffffffffffffffffffff1673ffffffffffffffffffffffffffffffffffffffff1663b9496b6284846040518363ffffffff1660e01b8152600401610dea929190611690565b600060405180830381600087803b158015610e0457600080fd5b505af1158015610e18573d6000803e3d6000fd5b50505050505050565b60006001905090565b6000612711905090565b60007fffffffffffffffffffffffffffffffffffffffffffffffffffffffffffffffff905090565b60007f9e7b61f58c47dc699ac88507c4f5bb9f121c03808c5676a8078fe583e4649700905090565b6000819050919050565b6000610e9982610e84565b9050919050565b610ea981610e8e565b82525050565b6000602082019050610ec46000830184610ea0565b92915050565b600080fd5b600080fd5b610edd81610e84565b8114610ee857600080fd5b50565b600081359050610efa81610ed4565b92915050565b600080fd5b600080fd5b600080fd5b60008083601f840112610f2557610f24610f00565b5b8235905067ffffffffffffffff811115610f4257610f41610f05565b5b602083019150836001820283011115610f5e57610f5d610f0a565b5b9250929050565b600080600060408486031215610f7e57610f7d610eca565b5b6000610f8c86828701610eeb565b935050602084013567ffffffffffffffff811115610fad57610fac610ecf565b5b610fb986828701610f0f565b92509250509250925092565b60008115159050919050565b610fda81610fc5565b82525050565b6000602082019050610ff56000830184610fd1565b92915050565b6000819050919050565b61100e81610ffb565b82525050565b60006020820190506110296000830184611005565b92915050565b600082825260208201905092915050565b7f4e6f742061207061727469636970616e74000000000000000000000000000000600082015250565b600061107660118361102f565b915061108182611040565b602082019050919050565b600060208201905081810360008301526110a581611069565b9050919050565b7f4d61746368696e67206e6f7420636f6d706c6574650000000000000000000000600082015250565b60006110e260158361102f565b91506110ed826110ac565b602082019050919050565b60006020820190508181036000830152611111816110d5565b9050919050565b7f4e6f74206d617463686564207965740000000000000000000000000000000000600082015250565b600061114e600f8361102f565b915061115982611118565b602082019050919050565b6000602082019050818103600083015261117d81611141565b9050919050565b7f4d61746368696e6720616c726561647920636f6d706c65746564000000000000600082015250565b60006111ba601a8361102f565b91506111c582611184565b602082019050919050565b600060208201905081810360008301526111e9816111ad565b9050919050565b7f416c7265616479207375626d6974746564000000000000000000000000000000600082015250565b600061122660118361102f565b9150611231826111f0565b602082019050919050565b6000602082019050818103600083015261125581611219565b9050919050565b7f4e487b7100000000000000000000000000000000000000000000000000000000600052601160045260246000fd5b600061129682610ffb565b91507fffffffffffffffffffffffffffffffffffffffffffffffffffffffffffffffff82036112c8576112c761125c565b5b600182019050919050565b7f4e487b7100000000000000000000000000000000000000000000000000000000600052603260045260246000fd5b7f4e656564206174206c656173742032207061727469636970616e747300000000600082015250565b6000611338601c8361102f565b915061134382611302565b602082019050919050565b600060208201905081810360008301526113678161132b565b9050919050565b7f4e487b7100000000000000000000000000000000000000000000000000000000600052601260045260246000fd5b60006113a882610ffb565b91506113b383610ffb565b9250826113c3576113c261136e565b5b828206905092915050565b7f4576656e206e756d626572206f66207061727469636970616e7473207265717560008201527f6972656400000000000000000000000000000000000000000000000000000000602082015250565b600061142a60248361102f565b9150611435826113ce565b604082019050919050565b600060208201905081810360008301526114598161141d565b9050919050565b600061146b82610ffb565b915061147683610ffb565b925082820190508082111561148e5761148d61125c565b5b92915050565b61149d81610e84565b82525050565b600073ffffffffffffffffffffffffffffffffffffffff82169050919050565b60006114ce826114a3565b9050919050565b6114de816114c3565b82525050565b600081519050919050565b600082825260208201905092915050565b60005b8381101561151e578082015181840152602081019050611503565b60008484015250505050565b6000601f19601f8301169050919050565b6000611546826114e4565b61155081856114ef565b9350611560818560208601611500565b6115698161152a565b840191505092915050565b7f4e487b7100000000000000000000000000000000000000000000000000000000600052602160045260246000fd5b605481106115b4576115b3611574565b5b50565b60008190506115c5826115a3565b919050565b60006115d5826115b7565b9050919050565b6115e5816115ca565b82525050565b60006080820190506116006000830187611494565b61160d60208301866114d5565b818103604083015261161f818561153b565b905061162e60608301846115dc565b95945050505050565b61164081610e84565b811461164b57600080fd5b50565b60008151905061165d81611637565b92915050565b60006020828403121561167957611678610eca565b5b60006116878482850161164e565b91505092915050565b60006040820190506116a56000830185611494565b6116b260208301846114d5565b939250505056fea26469706673582212202e358c1045245da042c3d1666255577bff64dcd94d05aae0e32e89685c85c93964736f6c63430008180033",
  "linkReferences": {},
  "deployedLinkReferences": {}
}